{
  "_format": "hh-sol-artifact-1",
  "contractName": "MyNFCat",
  "sourceName": "contracts/MyNFCat.sol",
  "abi": [
    {
      "inputs": [],
      "stateMutability": "nonpayable",
      "type": "constructor"
    },
    {
      "anonymous": false,
      "inputs": [
        {
          "indexed": true,
          "internalType": "address",
          "name": "owner",
          "type": "address"
        },
        {
          "indexed": true,
          "internalType": "address",
          "name": "approved",
          "type": "address"
        },
        {
          "indexed": true,
          "internalType": "uint256",
          "name": "tokenId",
          "type": "uint256"
        }
      ],
      "name": "Approval",
      "type": "event"
    },
    {
      "anonymous": false,
      "inputs": [
        {
          "indexed": true,
          "internalType": "address",
          "name": "owner",
          "type": "address"
        },
        {
          "indexed": true,
          "internalType": "address",
          "name": "operator",
          "type": "address"
        },
        {
          "indexed": false,
          "internalType": "bool",
          "name": "approved",
          "type": "bool"
        }
      ],
      "name": "ApprovalForAll",
      "type": "event"
    },
    {
      "anonymous": false,
      "inputs": [
        {
          "indexed": false,
          "internalType": "address",
          "name": "sender",
          "type": "address"
        },
        {
          "indexed": false,
          "internalType": "uint256",
          "name": "tokenId",
          "type": "uint256"
        }
      ],
      "name": "NewEpicNFTMinted",
      "type": "event"
    },
    {
      "anonymous": false,
      "inputs": [
        {
          "indexed": true,
          "internalType": "address",
          "name": "from",
          "type": "address"
        },
        {
          "indexed": true,
          "internalType": "address",
          "name": "to",
          "type": "address"
        },
        {
          "indexed": true,
          "internalType": "uint256",
          "name": "tokenId",
          "type": "uint256"
        }
      ],
      "name": "Transfer",
      "type": "event"
    },
    {
      "inputs": [
        {
          "internalType": "address",
          "name": "to",
          "type": "address"
        },
        {
          "internalType": "uint256",
          "name": "tokenId",
          "type": "uint256"
        }
      ],
      "name": "approve",
      "outputs": [],
      "stateMutability": "nonpayable",
      "type": "function"
    },
    {
      "inputs": [
        {
          "internalType": "address",
          "name": "owner",
          "type": "address"
        }
      ],
      "name": "balanceOf",
      "outputs": [
        {
          "internalType": "uint256",
          "name": "",
          "type": "uint256"
        }
      ],
      "stateMutability": "view",
      "type": "function"
    },
    {
      "inputs": [
        {
          "internalType": "uint256",
          "name": "tokenId",
          "type": "uint256"
        }
      ],
      "name": "getApproved",
      "outputs": [
        {
          "internalType": "address",
          "name": "",
          "type": "address"
        }
      ],
      "stateMutability": "view",
      "type": "function"
    },
    {
      "inputs": [
        {
          "internalType": "address",
          "name": "owner",
          "type": "address"
        },
        {
          "internalType": "address",
          "name": "operator",
          "type": "address"
        }
      ],
      "name": "isApprovedForAll",
      "outputs": [
        {
          "internalType": "bool",
          "name": "",
          "type": "bool"
        }
      ],
      "stateMutability": "view",
      "type": "function"
    },
    {
      "inputs": [],
      "name": "makeAnEpicNFT",
      "outputs": [],
      "stateMutability": "nonpayable",
      "type": "function"
    },
    {
      "inputs": [],
      "name": "name",
      "outputs": [
        {
          "internalType": "string",
          "name": "",
          "type": "string"
        }
      ],
      "stateMutability": "view",
      "type": "function"
    },
    {
      "inputs": [
        {
          "internalType": "uint256",
          "name": "tokenId",
          "type": "uint256"
        }
      ],
      "name": "ownerOf",
      "outputs": [
        {
          "internalType": "address",
          "name": "",
          "type": "address"
        }
      ],
      "stateMutability": "view",
      "type": "function"
    },
    {
      "inputs": [
        {
          "internalType": "uint256",
          "name": "tokenId",
          "type": "uint256"
        }
      ],
      "name": "pickRandomColor",
      "outputs": [
        {
          "internalType": "string",
          "name": "",
          "type": "string"
        }
      ],
      "stateMutability": "view",
      "type": "function"
    },
    {
      "inputs": [
        {
          "internalType": "uint256",
          "name": "tokenId",
          "type": "uint256"
        }
      ],
      "name": "pickRandomFirstWord",
      "outputs": [
        {
          "internalType": "string",
          "name": "",
          "type": "string"
        }
      ],
      "stateMutability": "view",
      "type": "function"
    },
    {
      "inputs": [
        {
          "internalType": "uint256",
          "name": "tokenId",
          "type": "uint256"
        }
      ],
      "name": "pickRandomSecondWord",
      "outputs": [
        {
          "internalType": "string",
          "name": "",
          "type": "string"
        }
      ],
      "stateMutability": "view",
      "type": "function"
    },
    {
      "inputs": [
        {
          "internalType": "uint256",
          "name": "tokenId",
          "type": "uint256"
        }
      ],
      "name": "pickRandomThirdWord",
      "outputs": [
        {
          "internalType": "string",
          "name": "",
          "type": "string"
        }
      ],
      "stateMutability": "view",
      "type": "function"
    },
    {
      "inputs": [
        {
          "internalType": "address",
          "name": "from",
          "type": "address"
        },
        {
          "internalType": "address",
          "name": "to",
          "type": "address"
        },
        {
          "internalType": "uint256",
          "name": "tokenId",
          "type": "uint256"
        }
      ],
      "name": "safeTransferFrom",
      "outputs": [],
      "stateMutability": "nonpayable",
      "type": "function"
    },
    {
      "inputs": [
        {
          "internalType": "address",
          "name": "from",
          "type": "address"
        },
        {
          "internalType": "address",
          "name": "to",
          "type": "address"
        },
        {
          "internalType": "uint256",
          "name": "tokenId",
          "type": "uint256"
        },
        {
          "internalType": "bytes",
          "name": "_data",
          "type": "bytes"
        }
      ],
      "name": "safeTransferFrom",
      "outputs": [],
      "stateMutability": "nonpayable",
      "type": "function"
    },
    {
      "inputs": [
        {
          "internalType": "address",
          "name": "operator",
          "type": "address"
        },
        {
          "internalType": "bool",
          "name": "approved",
          "type": "bool"
        }
      ],
      "name": "setApprovalForAll",
      "outputs": [],
      "stateMutability": "nonpayable",
      "type": "function"
    },
    {
      "inputs": [
        {
          "internalType": "bytes4",
          "name": "interfaceId",
          "type": "bytes4"
        }
      ],
      "name": "supportsInterface",
      "outputs": [
        {
          "internalType": "bool",
          "name": "",
          "type": "bool"
        }
      ],
      "stateMutability": "view",
      "type": "function"
    },
    {
      "inputs": [],
      "name": "symbol",
      "outputs": [
        {
          "internalType": "string",
          "name": "",
          "type": "string"
        }
      ],
      "stateMutability": "view",
      "type": "function"
    },
    {
      "inputs": [
        {
          "internalType": "uint256",
          "name": "tokenId",
          "type": "uint256"
        }
      ],
      "name": "tokenURI",
      "outputs": [
        {
          "internalType": "string",
          "name": "",
          "type": "string"
        }
      ],
      "stateMutability": "view",
      "type": "function"
    },
    {
      "inputs": [
        {
          "internalType": "address",
          "name": "from",
          "type": "address"
        },
        {
          "internalType": "address",
          "name": "to",
          "type": "address"
        },
        {
          "internalType": "uint256",
          "name": "tokenId",
          "type": "uint256"
        }
      ],
      "name": "transferFrom",
      "outputs": [],
      "stateMutability": "nonpayable",
      "type": "function"
    }
  ],
  "bytecode": "0x608060405260405180610100016040528060da815260200162004a6c60da9139600890805190602001906200003692919062000990565b5060405180608001604052806056815260200162004b4660569139600990805190602001906200006892919062000990565b506040518060c001604052806040518060400160405280600b81526020017f4d6963726f73636f70696300000000000000000000000000000000000000000081525081526020016040518060400160405280600981526020017f4d696e696174757265000000000000000000000000000000000000000000000081525081526020016040518060400160405280600781526020017f417665726167650000000000000000000000000000000000000000000000000081525081526020016040518060400160405280600881526020017f5374616e6461726400000000000000000000000000000000000000000000000081525081526020016040518060400160405280600881526020017f436f6c6f7373616c00000000000000000000000000000000000000000000000081525081526020016040518060400160405280600681526020017f436f736d69630000000000000000000000000000000000000000000000000000815250815250600a906006620001e692919062000a21565b506040518061018001604052806040518060400160405280600781526020017f4164616d616e740000000000000000000000000000000000000000000000000081525081526020016040518060400160405280600981526020017f416e696d6973746963000000000000000000000000000000000000000000000081525081526020016040518060400160405280600781526020017f436175737469630000000000000000000000000000000000000000000000000081525081526020016040518060400160405280600881526020017f4665636b6c65737300000000000000000000000000000000000000000000000081525081526020016040518060400160405280600c81526020017f496e7472616e736967656e74000000000000000000000000000000000000000081525081526020016040518060400160405280600881526020017f4d616e6e6572656400000000000000000000000000000000000000000000000081525081526020016040518060400160405280600781526020017f4e6f78696f75730000000000000000000000000000000000000000000000000081525081526020016040518060400160405280600881526020017f506574756c616e7400000000000000000000000000000000000000000000000081525081526020016040518060400160405280600781526020017f5075636b6973680000000000000000000000000000000000000000000000000081525081526020016040518060400160405280600a81526020017f52756d696e61746976650000000000000000000000000000000000000000000081525081526020016040518060400160405280600881526020017f5374726964656e7400000000000000000000000000000000000000000000000081525081526020016040518060400160405280600981526020017f5472656e6368616e740000000000000000000000000000000000000000000000815250815250600b90600c620004c792919062000a88565b506040518061012001604052806040518060400160405280600a81526020017f4162797373696e69616e0000000000000000000000000000000000000000000081525081526020016040518060400160405280600881526020017f42616c696e65736500000000000000000000000000000000000000000000000081525081526020016040518060400160405280600681526020017f43616c69636f000000000000000000000000000000000000000000000000000081525081526020016040518060400160405280600981526020017f436861727472657578000000000000000000000000000000000000000000000081525081526020016040518060400160405280600681526020017f43796d726963000000000000000000000000000000000000000000000000000081525081526020016040518060400160405280600581526020017f4b6f72617400000000000000000000000000000000000000000000000000000081525081526020016040518060400160405280600a81526020017f526167616d756666696e0000000000000000000000000000000000000000000081525081526020016040518060400160405280600681526020017f546f79676572000000000000000000000000000000000000000000000000000081525081526020016040518060400160405280600581526020017f5461626279000000000000000000000000000000000000000000000000000000815250815250600c906009620006f792919062000aef565b5060405180606001604052806040518060400160405280600781526020017f234639444543390000000000000000000000000000000000000000000000000081525081526020016040518060400160405280600781526020017f233939423244440000000000000000000000000000000000000000000000000081525081526020016040518060400160405280600781526020017f2345394146413300000000000000000000000000000000000000000000000000815250815250600d906003620007c492919062000b56565b50348015620007d257600080fd5b506040518060400160405280600781526020017f4d794e46436174000000000000000000000000000000000000000000000000008152506040518060400160405280600581526020017f4e4643617400000000000000000000000000000000000000000000000000000081525081600090805190602001906200085792919062000990565b5080600190805190602001906200087092919062000990565b505050620008be6040518060400160405280601c81526020017f496e697469616c697a696e6720616c6c20746865207468696e67732e00000000815250620008c460201b620012491760201c565b62000d77565b6200096481604051602401620008db919062000c8b565b6040516020818303038152906040527f41304fac000000000000000000000000000000000000000000000000000000007bffffffffffffffffffffffffffffffffffffffffffffffffffffffff19166020820180517bffffffffffffffffffffffffffffffffffffffffffffffffffffffff83818316178352505050506200096760201b60201c565b50565b60008151905060006a636f6e736f6c652e6c6f679050602083016000808483855afa5050505050565b8280546200099e9062000d01565b90600052602060002090601f016020900481019282620009c2576000855562000a0e565b82601f10620009dd57805160ff191683800117855562000a0e565b8280016001018555821562000a0e579182015b8281111562000a0d578251825591602001919060010190620009f0565b5b50905062000a1d919062000bbd565b5090565b82805482825590600052602060002090810192821562000a75579160200282015b8281111562000a7457825182908051906020019062000a6392919062000990565b509160200191906001019062000a42565b5b50905062000a84919062000bdc565b5090565b82805482825590600052602060002090810192821562000adc579160200282015b8281111562000adb57825182908051906020019062000aca92919062000990565b509160200191906001019062000aa9565b5b50905062000aeb919062000bdc565b5090565b82805482825590600052602060002090810192821562000b43579160200282015b8281111562000b4257825182908051906020019062000b3192919062000990565b509160200191906001019062000b10565b5b50905062000b52919062000bdc565b5090565b82805482825590600052602060002090810192821562000baa579160200282015b8281111562000ba957825182908051906020019062000b9892919062000990565b509160200191906001019062000b77565b5b50905062000bb9919062000bdc565b5090565b5b8082111562000bd857600081600090555060010162000bbe565b5090565b5b8082111562000c00576000818162000bf6919062000c04565b5060010162000bdd565b5090565b50805462000c129062000d01565b6000825580601f1062000c26575062000c47565b601f01602090049060005260206000209081019062000c46919062000bbd565b5b50565b600062000c578262000caf565b62000c63818562000cba565b935062000c7581856020860162000ccb565b62000c808162000d66565b840191505092915050565b6000602082019050818103600083015262000ca7818462000c4a565b905092915050565b600081519050919050565b600082825260208201905092915050565b60005b8381101562000ceb57808201518184015260208101905062000cce565b8381111562000cfb576000848401525b50505050565b6000600282049050600182168062000d1a57607f821691505b6020821081141562000d315762000d3062000d37565b5b50919050565b7f4e487b7100000000000000000000000000000000000000000000000000000000600052602260045260246000fd5b6000601f19601f8301169050919050565b613ce58062000d876000396000f3fe608060405234801561001057600080fd5b50600436106101165760003560e01c806370a08231116100a2578063b88d4fde11610071578063b88d4fde14610317578063c575757a14610333578063c87b56dd14610363578063de9d132f14610393578063e985e9c51461039d57610116565b806370a082311461027d57806395d89b41146102ad578063a22cb465146102cb578063b187301f146102e757610116565b806323b872dd116100e957806323b872dd146101b55780632de38d68146101d157806342842e0e14610201578063514dc8c61461021d5780636352211e1461024d57610116565b806301ffc9a71461011b57806306fdde031461014b578063081812fc14610169578063095ea7b314610199575b600080fd5b61013560048036038101906101309190612675565b6103cd565b6040516101429190612e5c565b60405180910390f35b6101536104af565b6040516101609190612e77565b60405180910390f35b610183600480360381019061017e91906126c7565b610541565b6040516101909190612dcc565b60405180910390f35b6101b360048036038101906101ae9190612639565b6105c6565b005b6101cf60048036038101906101ca9190612533565b6106de565b005b6101eb60048036038101906101e691906126c7565b61073e565b6040516101f89190612e77565b60405180910390f35b61021b60048036038101906102169190612533565b61085c565b005b610237600480360381019061023291906126c7565b61087c565b6040516102449190612e77565b60405180910390f35b610267600480360381019061026291906126c7565b61099a565b6040516102749190612dcc565b60405180910390f35b610297600480360381019061029291906124ce565b610a4c565b6040516102a491906130d7565b60405180910390f35b6102b5610b04565b6040516102c29190612e77565b60405180910390f35b6102e560048036038101906102e091906125fd565b610b96565b005b61030160048036038101906102fc91906126c7565b610bac565b60405161030e9190612e77565b60405180910390f35b610331600480360381019061032c9190612582565b610cca565b005b61034d600480360381019061034891906126c7565b610d2c565b60405161035a9190612e77565b60405180910390f35b61037d600480360381019061037891906126c7565b610e4a565b60405161038a9190612e77565b60405180910390f35b61039b610f9c565b005b6103b760048036038101906103b291906124f7565b6111b5565b6040516103c49190612e5c565b60405180910390f35b60007f80ac58cd000000000000000000000000000000000000000000000000000000007bffffffffffffffffffffffffffffffffffffffffffffffffffffffff1916827bffffffffffffffffffffffffffffffffffffffffffffffffffffffff1916148061049857507f5b5e139f000000000000000000000000000000000000000000000000000000007bffffffffffffffffffffffffffffffffffffffffffffffffffffffff1916827bffffffffffffffffffffffffffffffffffffffffffffffffffffffff1916145b806104a857506104a7826112e2565b5b9050919050565b6060600080546104be9061336b565b80601f01602080910402602001604051908101604052809291908181526020018280546104ea9061336b565b80156105375780601f1061050c57610100808354040283529160200191610537565b820191906000526020600020905b81548152906001019060200180831161051a57829003601f168201915b5050505050905090565b600061054c8261134c565b61058b576040517f08c379a000000000000000000000000000000000000000000000000000000000815260040161058290613057565b60405180910390fd5b6004600083815260200190815260200160002060009054906101000a900473ffffffffffffffffffffffffffffffffffffffff169050919050565b60006105d18261099a565b90508073ffffffffffffffffffffffffffffffffffffffff168373ffffffffffffffffffffffffffffffffffffffff161415610642576040517f08c379a000000000000000000000000000000000000000000000000000000000815260040161063990613097565b60405180910390fd5b8073ffffffffffffffffffffffffffffffffffffffff166106616113b8565b73ffffffffffffffffffffffffffffffffffffffff161480610690575061068f8161068a6113b8565b6111b5565b5b6106cf576040517f08c379a00000000000000000000000000000000000000000000000000000000081526004016106c690612f97565b60405180910390fd5b6106d983836113c0565b505050565b6106ef6106e96113b8565b82611479565b61072e576040517f08c379a0000000000000000000000000000000000000000000000000000000008152600401610725906130b7565b60405180910390fd5b610739838383611557565b505050565b6060600061077261074e846117be565b60405160200161075e9190612d66565b60405160208183030381529060405261196b565b9050600a80549050816107859190613417565b9050600a81815481106107c1577f4e487b7100000000000000000000000000000000000000000000000000000000600052603260045260246000fd5b9060005260206000200180546107d69061336b565b80601f01602080910402602001604051908101604052809291908181526020018280546108029061336b565b801561084f5780601f106108245761010080835404028352916020019161084f565b820191906000526020600020905b81548152906001019060200180831161083257829003601f168201915b5050505050915050919050565b61087783838360405180602001604052806000815250610cca565b505050565b606060006108b061088c846117be565b60405160200161089c9190612daa565b60405160208183030381529060405261196b565b9050600d80549050816108c39190613417565b9050600d81815481106108ff577f4e487b7100000000000000000000000000000000000000000000000000000000600052603260045260246000fd5b9060005260206000200180546109149061336b565b80601f01602080910402602001604051908101604052809291908181526020018280546109409061336b565b801561098d5780601f106109625761010080835404028352916020019161098d565b820191906000526020600020905b81548152906001019060200180831161097057829003601f168201915b5050505050915050919050565b6000806002600084815260200190815260200160002060009054906101000a900473ffffffffffffffffffffffffffffffffffffffff169050600073ffffffffffffffffffffffffffffffffffffffff168173ffffffffffffffffffffffffffffffffffffffff161415610a43576040517f08c379a0000000000000000000000000000000000000000000000000000000008152600401610a3a90612fd7565b60405180910390fd5b80915050919050565b60008073ffffffffffffffffffffffffffffffffffffffff168273ffffffffffffffffffffffffffffffffffffffff161415610abd576040517f08c379a0000000000000000000000000000000000000000000000000000000008152600401610ab490612fb7565b60405180910390fd5b600360008373ffffffffffffffffffffffffffffffffffffffff1673ffffffffffffffffffffffffffffffffffffffff168152602001908152602001600020549050919050565b606060018054610b139061336b565b80601f0160208091040260200160405190810160405280929190818152602001828054610b3f9061336b565b8015610b8c5780601f10610b6157610100808354040283529160200191610b8c565b820191906000526020600020905b815481529060010190602001808311610b6f57829003601f168201915b5050505050905090565b610ba8610ba16113b8565b838361199e565b5050565b60606000610be0610bbc846117be565b604051602001610bcc9190612cff565b60405160208183030381529060405261196b565b9050600b8054905081610bf39190613417565b9050600b8181548110610c2f577f4e487b7100000000000000000000000000000000000000000000000000000000600052603260045260246000fd5b906000526020600020018054610c449061336b565b80601f0160208091040260200160405190810160405280929190818152602001828054610c709061336b565b8015610cbd5780601f10610c9257610100808354040283529160200191610cbd565b820191906000526020600020905b815481529060010190602001808311610ca057829003601f168201915b5050505050915050919050565b610cdb610cd56113b8565b83611479565b610d1a576040517f08c379a0000000000000000000000000000000000000000000000000000000008152600401610d11906130b7565b60405180910390fd5b610d2684848484611b0b565b50505050565b60606000610d60610d3c846117be565b604051602001610d4c9190612cdd565b60405160208183030381529060405261196b565b9050600c8054905081610d739190613417565b9050600c8181548110610daf577f4e487b7100000000000000000000000000000000000000000000000000000000600052603260045260246000fd5b906000526020600020018054610dc49061336b565b80601f0160208091040260200160405190810160405280929190818152602001828054610df09061336b565b8015610e3d5780601f10610e1257610100808354040283529160200191610e3d565b820191906000526020600020905b815481529060010190602001808311610e2057829003601f168201915b5050505050915050919050565b6060610e558261134c565b610e94576040517f08c379a0000000000000000000000000000000000000000000000000000000008152600401610e8b90613037565b60405180910390fd5b6000600660008481526020019081526020016000208054610eb49061336b565b80601f0160208091040260200160405190810160405280929190818152602001828054610ee09061336b565b8015610f2d5780601f10610f0257610100808354040283529160200191610f2d565b820191906000526020600020905b815481529060010190602001808311610f1057829003601f168201915b505050505090506000610f3e611b67565b9050600081511415610f54578192505050610f97565b600082511115610f89578082604051602001610f71929190612c07565b60405160208183030381529060405292505050610f97565b610f9284611b7e565b925050505b919050565b6000610fa86007611c25565b90506000610fb58261073e565b90506000610fc283610bac565b90506000610fcf84610d2c565b90506000838383604051602001610fe893929190612c2b565b604051602081830303815290604052905060006110048661087c565b905060006008826009856040516020016110219493929190612c72565b604051602081830303815290604052905060006110668461104184611c33565b604051602001611052929190612d21565b604051602081830303815290604052611c33565b905060008160405160200161107b9190612d88565b60405160208183030381529060405290506110ca6040518060400160405280601581526020017f0a2d2d2d2d2d2d2d2d2d2d2d2d2d2d2d2d2d2d2d2d0000000000000000000000815250611249565b6110f2816040516020016110de9190612cbb565b604051602081830303815290604052611249565b6111306040518060400160405280601581526020017f2d2d2d2d2d2d2d2d2d2d2d2d2d2d2d2d2d2d2d2d0a0000000000000000000000815250611249565b61113a338a611df1565b6111448982611e0f565b61114e6007611e83565b611171604051806060016040528060258152602001613c4b602591398a33611e99565b7febb98688741ffa4c7589bf325de30cf7becb63de567842e1ccdb6cb949fdc82c338a6040516111a2929190612e33565b60405180910390a1505050505050505050565b6000600560008473ffffffffffffffffffffffffffffffffffffffff1673ffffffffffffffffffffffffffffffffffffffff16815260200190815260200160002060008373ffffffffffffffffffffffffffffffffffffffff1673ffffffffffffffffffffffffffffffffffffffff16815260200190815260200160002060009054906101000a900460ff16905092915050565b6112df8160405160240161125d9190612e77565b6040516020818303038152906040527f41304fac000000000000000000000000000000000000000000000000000000007bffffffffffffffffffffffffffffffffffffffffffffffffffffffff19166020820180517bffffffffffffffffffffffffffffffffffffffffffffffffffffffff8381831617835250505050611f38565b50565b60007f01ffc9a7000000000000000000000000000000000000000000000000000000007bffffffffffffffffffffffffffffffffffffffffffffffffffffffff1916827bffffffffffffffffffffffffffffffffffffffffffffffffffffffff1916149050919050565b60008073ffffffffffffffffffffffffffffffffffffffff166002600084815260200190815260200160002060009054906101000a900473ffffffffffffffffffffffffffffffffffffffff1673ffffffffffffffffffffffffffffffffffffffff1614159050919050565b600033905090565b816004600083815260200190815260200160002060006101000a81548173ffffffffffffffffffffffffffffffffffffffff021916908373ffffffffffffffffffffffffffffffffffffffff160217905550808273ffffffffffffffffffffffffffffffffffffffff166114338361099a565b73ffffffffffffffffffffffffffffffffffffffff167f8c5be1e5ebec7d5bd14f71427d1e84f3dd0314c0f7b2291e5b200ac8c7c3b92560405160405180910390a45050565b60006114848261134c565b6114c3576040517f08c379a00000000000000000000000000000000000000000000000000000000081526004016114ba90612f77565b60405180910390fd5b60006114ce8361099a565b90508073ffffffffffffffffffffffffffffffffffffffff168473ffffffffffffffffffffffffffffffffffffffff16148061153d57508373ffffffffffffffffffffffffffffffffffffffff1661152584610541565b73ffffffffffffffffffffffffffffffffffffffff16145b8061154e575061154d81856111b5565b5b91505092915050565b8273ffffffffffffffffffffffffffffffffffffffff166115778261099a565b73ffffffffffffffffffffffffffffffffffffffff16146115cd576040517f08c379a00000000000000000000000000000000000000000000000000000000081526004016115c490612ef7565b60405180910390fd5b600073ffffffffffffffffffffffffffffffffffffffff168273ffffffffffffffffffffffffffffffffffffffff16141561163d576040517f08c379a000000000000000000000000000000000000000000000000000000000815260040161163490612f37565b60405180910390fd5b611648838383611f61565b6116536000826113c0565b6001600360008573ffffffffffffffffffffffffffffffffffffffff1673ffffffffffffffffffffffffffffffffffffffff16815260200190815260200160002060008282546116a39190613281565b925050819055506001600360008473ffffffffffffffffffffffffffffffffffffffff1673ffffffffffffffffffffffffffffffffffffffff16815260200190815260200160002060008282546116fa91906131a0565b92505081905550816002600083815260200190815260200160002060006101000a81548173ffffffffffffffffffffffffffffffffffffffff021916908373ffffffffffffffffffffffffffffffffffffffff160217905550808273ffffffffffffffffffffffffffffffffffffffff168473ffffffffffffffffffffffffffffffffffffffff167fddf252ad1be2c89b69c2b068fc378daa952ba7f163c4a11628f55a4df523b3ef60405160405180910390a46117b9838383611f66565b505050565b60606000821415611806576040518060400160405280600181526020017f30000000000000000000000000000000000000000000000000000000000000008152509050611966565b600082905060005b60008214611838578080611821906133ce565b915050600a8261183191906131f6565b915061180e565b60008167ffffffffffffffff81111561187a577f4e487b7100000000000000000000000000000000000000000000000000000000600052604160045260246000fd5b6040519080825280601f01601f1916602001820160405280156118ac5781602001600182028036833780820191505090505b5090505b6000851461195f576001826118c59190613281565b9150600a856118d49190613417565b60306118e091906131a0565b60f81b81838151811061191c577f4e487b7100000000000000000000000000000000000000000000000000000000600052603260045260246000fd5b60200101907effffffffffffffffffffffffffffffffffffffffffffffffffffffffffffff1916908160001a905350600a8561195891906131f6565b94506118b0565b8093505050505b919050565b60008160405160200161197e9190612bf0565b6040516020818303038152906040528051906020012060001c9050919050565b8173ffffffffffffffffffffffffffffffffffffffff168373ffffffffffffffffffffffffffffffffffffffff161415611a0d576040517f08c379a0000000000000000000000000000000000000000000000000000000008152600401611a0490612f57565b60405180910390fd5b80600560008573ffffffffffffffffffffffffffffffffffffffff1673ffffffffffffffffffffffffffffffffffffffff16815260200190815260200160002060008473ffffffffffffffffffffffffffffffffffffffff1673ffffffffffffffffffffffffffffffffffffffff16815260200190815260200160002060006101000a81548160ff0219169083151502179055508173ffffffffffffffffffffffffffffffffffffffff168373ffffffffffffffffffffffffffffffffffffffff167f17307eab39ab6107e8899845ad3d59bd9653f200f220920489ca2b5937696c3183604051611afe9190612e5c565b60405180910390a3505050565b611b16848484611557565b611b2284848484611f6b565b611b61576040517f08c379a0000000000000000000000000000000000000000000000000000000008152600401611b5890612ed7565b60405180910390fd5b50505050565b606060405180602001604052806000815250905090565b6060611b898261134c565b611bc8576040517f08c379a0000000000000000000000000000000000000000000000000000000008152600401611bbf90613077565b60405180910390fd5b6000611bd2611b67565b90506000815111611bf25760405180602001604052806000815250611c1d565b80611bfc846117be565b604051602001611c0d929190612c07565b6040516020818303038152906040525b915050919050565b600081600001549050919050565b60606000825190506000811415611c5c5760405180602001604052806000815250915050611dec565b60006003600283611c6d91906131a0565b611c7791906131f6565b6004611c839190613227565b90506000602082611c9491906131a0565b67ffffffffffffffff811115611cd3577f4e487b7100000000000000000000000000000000000000000000000000000000600052604160045260246000fd5b6040519080825280601f01601f191660200182016040528015611d055781602001600182028036833780820191505090505b5090506000604051806060016040528060408152602001613c70604091399050600181016020830160005b86811015611da95760038101905062ffffff818a015116603f8160121c168401518060081b905060ff603f83600c1c1686015116810190508060081b905060ff603f8360061c1686015116810190508060081b905060ff603f831686015116810190508060e01b90508084526004840193505050611d30565b506003860660018114611dc35760028114611dd357611dde565b613d3d60f01b6002830352611dde565b603d60f81b60018303525b508484525050819450505050505b919050565b611e0b828260405180602001604052806000815250612102565b5050565b611e188261134c565b611e57576040517f08c379a0000000000000000000000000000000000000000000000000000000008152600401611e4e90612ff7565b60405180910390fd5b80600660008481526020019081526020016000209080519060200190611e7e92919061235a565b505050565b6001816000016000828254019250508190555050565b611f33838383604051602401611eb193929190612e99565b6040516020818303038152906040527fe3849f79000000000000000000000000000000000000000000000000000000007bffffffffffffffffffffffffffffffffffffffffffffffffffffffff19166020820180517bffffffffffffffffffffffffffffffffffffffffffffffffffffffff8381831617835250505050611f38565b505050565b60008151905060006a636f6e736f6c652e6c6f679050602083016000808483855afa5050505050565b505050565b505050565b6000611f8c8473ffffffffffffffffffffffffffffffffffffffff1661215d565b156120f5578373ffffffffffffffffffffffffffffffffffffffff1663150b7a02611fb56113b8565b8786866040518563ffffffff1660e01b8152600401611fd79493929190612de7565b602060405180830381600087803b158015611ff157600080fd5b505af192505050801561202257506040513d601f19601f8201168201806040525081019061201f919061269e565b60015b6120a5573d8060008114612052576040519150601f19603f3d011682016040523d82523d6000602084013e612057565b606091505b5060008151141561209d576040517f08c379a000000000000000000000000000000000000000000000000000000000815260040161209490612ed7565b60405180910390fd5b805181602001fd5b63150b7a0260e01b7bffffffffffffffffffffffffffffffffffffffffffffffffffffffff1916817bffffffffffffffffffffffffffffffffffffffffffffffffffffffff1916149150506120fa565b600190505b949350505050565b61210c8383612180565b6121196000848484611f6b565b612158576040517f08c379a000000000000000000000000000000000000000000000000000000000815260040161214f90612ed7565b60405180910390fd5b505050565b6000808273ffffffffffffffffffffffffffffffffffffffff163b119050919050565b600073ffffffffffffffffffffffffffffffffffffffff168273ffffffffffffffffffffffffffffffffffffffff1614156121f0576040517f08c379a00000000000000000000000000000000000000000000000000000000081526004016121e790613017565b60405180910390fd5b6121f98161134c565b15612239576040517f08c379a000000000000000000000000000000000000000000000000000000000815260040161223090612f17565b60405180910390fd5b61224560008383611f61565b6001600360008473ffffffffffffffffffffffffffffffffffffffff1673ffffffffffffffffffffffffffffffffffffffff168152602001908152602001600020600082825461229591906131a0565b92505081905550816002600083815260200190815260200160002060006101000a81548173ffffffffffffffffffffffffffffffffffffffff021916908373ffffffffffffffffffffffffffffffffffffffff160217905550808273ffffffffffffffffffffffffffffffffffffffff16600073ffffffffffffffffffffffffffffffffffffffff167fddf252ad1be2c89b69c2b068fc378daa952ba7f163c4a11628f55a4df523b3ef60405160405180910390a461235660008383611f66565b5050565b8280546123669061336b565b90600052602060002090601f01602090048101928261238857600085556123cf565b82601f106123a157805160ff19168380011785556123cf565b828001600101855582156123cf579182015b828111156123ce5782518255916020019190600101906123b3565b5b5090506123dc91906123e0565b5090565b5b808211156123f95760008160009055506001016123e1565b5090565b600061241061240b84613117565b6130f2565b90508281526020810184848401111561242857600080fd5b612433848285613329565b509392505050565b60008135905061244a81613bee565b92915050565b60008135905061245f81613c05565b92915050565b60008135905061247481613c1c565b92915050565b60008151905061248981613c1c565b92915050565b600082601f8301126124a057600080fd5b81356124b08482602086016123fd565b91505092915050565b6000813590506124c881613c33565b92915050565b6000602082840312156124e057600080fd5b60006124ee8482850161243b565b91505092915050565b6000806040838503121561250a57600080fd5b60006125188582860161243b565b92505060206125298582860161243b565b9150509250929050565b60008060006060848603121561254857600080fd5b60006125568682870161243b565b93505060206125678682870161243b565b9250506040612578868287016124b9565b9150509250925092565b6000806000806080858703121561259857600080fd5b60006125a68782880161243b565b94505060206125b78782880161243b565b93505060406125c8878288016124b9565b925050606085013567ffffffffffffffff8111156125e557600080fd5b6125f18782880161248f565b91505092959194509250565b6000806040838503121561261057600080fd5b600061261e8582860161243b565b925050602061262f85828601612450565b9150509250929050565b6000806040838503121561264c57600080fd5b600061265a8582860161243b565b925050602061266b858286016124b9565b9150509250929050565b60006020828403121561268757600080fd5b600061269584828501612465565b91505092915050565b6000602082840312156126b057600080fd5b60006126be8482850161247a565b91505092915050565b6000602082840312156126d957600080fd5b60006126e7848285016124b9565b91505092915050565b6126f9816132b5565b82525050565b612708816132c7565b82525050565b60006127198261315d565b6127238185613173565b9350612733818560208601613338565b61273c81613504565b840191505092915050565b600061275282613168565b61275c8185613184565b935061276c818560208601613338565b61277581613504565b840191505092915050565b600061278b82613168565b6127958185613195565b93506127a5818560208601613338565b80840191505092915050565b600081546127be8161336b565b6127c88186613195565b945060018216600081146127e357600181146127f457612827565b60ff19831686528186019350612827565b6127fd85613148565b60005b8381101561281f57815481890152600182019150602081019050612800565b838801955050505b50505092915050565b600061283d602583613195565b915061284882613515565b602582019050919050565b6000612860603283613184565b915061286b82613564565b604082019050919050565b6000612883602583613184565b915061288e826135b3565b604082019050919050565b60006128a6601c83613184565b91506128b182613602565b602082019050919050565b60006128c9600a83613195565b91506128d48261362b565b600a82019050919050565b60006128ec602483613184565b91506128f782613654565b604082019050919050565b600061290f601983613184565b915061291a826136a3565b602082019050919050565b6000612932600b83613195565b915061293d826136cc565b600b82019050919050565b6000612955602c83613184565b9150612960826136f5565b604082019050919050565b6000612978600d83613195565b915061298382613744565b600d82019050919050565b600061299b600183613195565b91506129a68261376d565b600182019050919050565b60006129be603883613184565b91506129c982613796565b604082019050919050565b60006129e1602a83613184565b91506129ec826137e5565b604082019050919050565b6000612a04602983613184565b9150612a0f82613834565b604082019050919050565b6000612a27602e83613184565b9150612a3282613883565b604082019050919050565b6000612a4a600283613195565b9150612a55826138d2565b600282019050919050565b6000612a6d602083613184565b9150612a78826138fb565b602082019050919050565b6000612a90603183613184565b9150612a9b82613924565b604082019050919050565b6000612ab3602c83613184565b9150612abe82613973565b604082019050919050565b6000612ad6602f83613184565b9150612ae1826139c2565b604082019050919050565b6000612af9600a83613195565b9150612b0482613a11565b600a82019050919050565b6000612b1c602183613184565b9150612b2782613a3a565b604082019050919050565b6000612b3f600a83613195565b9150612b4a82613a89565b600a82019050919050565b6000612b62606183613195565b9150612b6d82613ab2565b606182019050919050565b6000612b85601d83613195565b9150612b9082613b4d565b601d82019050919050565b6000612ba8603183613184565b9150612bb382613b76565b604082019050919050565b6000612bcb600583613195565b9150612bd682613bc5565b600582019050919050565b612bea8161331f565b82525050565b6000612bfc8284612780565b915081905092915050565b6000612c138285612780565b9150612c1f8284612780565b91508190509392505050565b6000612c378286612780565b9150612c428261298e565b9150612c4e8285612780565b9150612c598261298e565b9150612c658284612780565b9150819050949350505050565b6000612c7e82876127b1565b9150612c8a8286612780565b9150612c9682856127b1565b9150612ca28284612780565b9150612cad8261296b565b915081905095945050505050565b6000612cc682612830565b9150612cd28284612780565b915081905092915050565b6000612ce8826128bc565b9150612cf48284612780565b915081905092915050565b6000612d0a82612925565b9150612d168284612780565b915081905092915050565b6000612d2c82612aec565b9150612d388285612780565b9150612d4382612b55565b9150612d4f8284612780565b9150612d5a82612a3d565b91508190509392505050565b6000612d7182612b32565b9150612d7d8284612780565b915081905092915050565b6000612d9382612b78565b9150612d9f8284612780565b915081905092915050565b6000612db582612bbe565b9150612dc18284612780565b915081905092915050565b6000602082019050612de160008301846126f0565b92915050565b6000608082019050612dfc60008301876126f0565b612e0960208301866126f0565b612e166040830185612be1565b8181036060830152612e28818461270e565b905095945050505050565b6000604082019050612e4860008301856126f0565b612e556020830184612be1565b9392505050565b6000602082019050612e7160008301846126ff565b92915050565b60006020820190508181036000830152612e918184612747565b905092915050565b60006060820190508181036000830152612eb38186612747565b9050612ec26020830185612be1565b612ecf60408301846126f0565b949350505050565b60006020820190508181036000830152612ef081612853565b9050919050565b60006020820190508181036000830152612f1081612876565b9050919050565b60006020820190508181036000830152612f3081612899565b9050919050565b60006020820190508181036000830152612f50816128df565b9050919050565b60006020820190508181036000830152612f7081612902565b9050919050565b60006020820190508181036000830152612f9081612948565b9050919050565b60006020820190508181036000830152612fb0816129b1565b9050919050565b60006020820190508181036000830152612fd0816129d4565b9050919050565b60006020820190508181036000830152612ff0816129f7565b9050919050565b6000602082019050818103600083015261301081612a1a565b9050919050565b6000602082019050818103600083015261303081612a60565b9050919050565b6000602082019050818103600083015261305081612a83565b9050919050565b6000602082019050818103600083015261307081612aa6565b9050919050565b6000602082019050818103600083015261309081612ac9565b9050919050565b600060208201905081810360008301526130b081612b0f565b9050919050565b600060208201905081810360008301526130d081612b9b565b9050919050565b60006020820190506130ec6000830184612be1565b92915050565b60006130fc61310d565b9050613108828261339d565b919050565b6000604051905090565b600067ffffffffffffffff821115613132576131316134d5565b5b61313b82613504565b9050602081019050919050565b60008190508160005260206000209050919050565b600081519050919050565b600081519050919050565b600082825260208201905092915050565b600082825260208201905092915050565b600081905092915050565b60006131ab8261331f565b91506131b68361331f565b9250827fffffffffffffffffffffffffffffffffffffffffffffffffffffffffffffffff038211156131eb576131ea613448565b5b828201905092915050565b60006132018261331f565b915061320c8361331f565b92508261321c5761321b613477565b5b828204905092915050565b60006132328261331f565b915061323d8361331f565b9250817fffffffffffffffffffffffffffffffffffffffffffffffffffffffffffffffff048311821515161561327657613275613448565b5b828202905092915050565b600061328c8261331f565b91506132978361331f565b9250828210156132aa576132a9613448565b5b828203905092915050565b60006132c0826132ff565b9050919050565b60008115159050919050565b60007fffffffff0000000000000000000000000000000000000000000000000000000082169050919050565b600073ffffffffffffffffffffffffffffffffffffffff82169050919050565b6000819050919050565b82818337600083830152505050565b60005b8381101561335657808201518184015260208101905061333b565b83811115613365576000848401525b50505050565b6000600282049050600182168061338357607f821691505b60208210811415613397576133966134a6565b5b50919050565b6133a682613504565b810181811067ffffffffffffffff821117156133c5576133c46134d5565b5b80604052505050565b60006133d98261331f565b91507fffffffffffffffffffffffffffffffffffffffffffffffffffffffffffffffff82141561340c5761340b613448565b5b600182019050919050565b60006134228261331f565b915061342d8361331f565b92508261343d5761343c613477565b5b828206905092915050565b7f4e487b7100000000000000000000000000000000000000000000000000000000600052601160045260246000fd5b7f4e487b7100000000000000000000000000000000000000000000000000000000600052601260045260246000fd5b7f4e487b7100000000000000000000000000000000000000000000000000000000600052602260045260246000fd5b7f4e487b7100000000000000000000000000000000000000000000000000000000600052604160045260246000fd5b6000601f19601f8301169050919050565b7f68747470733a2f2f6e6674707265766965772e30786465762e636f6465732f3f60008201527f636f64653d000000000000000000000000000000000000000000000000000000602082015250565b7f4552433732313a207472616e7366657220746f206e6f6e20455243373231526560008201527f63656976657220696d706c656d656e7465720000000000000000000000000000602082015250565b7f4552433732313a207472616e736665722066726f6d20696e636f72726563742060008201527f6f776e6572000000000000000000000000000000000000000000000000000000602082015250565b7f4552433732313a20746f6b656e20616c7265616479206d696e74656400000000600082015250565b7f54484952445f574f524400000000000000000000000000000000000000000000600082015250565b7f4552433732313a207472616e7366657220746f20746865207a65726f2061646460008201527f7265737300000000000000000000000000000000000000000000000000000000602082015250565b7f4552433732313a20617070726f766520746f2063616c6c657200000000000000600082015250565b7f5345434f4e445f574f5244000000000000000000000000000000000000000000600082015250565b7f4552433732313a206f70657261746f7220717565727920666f72206e6f6e657860008201527f697374656e7420746f6b656e0000000000000000000000000000000000000000602082015250565b7f3c2f746578743e3c2f7376673e00000000000000000000000000000000000000600082015250565b7f2000000000000000000000000000000000000000000000000000000000000000600082015250565b7f4552433732313a20617070726f76652063616c6c6572206973206e6f74206f7760008201527f6e6572206e6f7220617070726f76656420666f7220616c6c0000000000000000602082015250565b7f4552433732313a2062616c616e636520717565727920666f7220746865207a6560008201527f726f206164647265737300000000000000000000000000000000000000000000602082015250565b7f4552433732313a206f776e657220717565727920666f72206e6f6e657869737460008201527f656e7420746f6b656e0000000000000000000000000000000000000000000000602082015250565b7f45524337323155524953746f726167653a2055524920736574206f66206e6f6e60008201527f6578697374656e7420746f6b656e000000000000000000000000000000000000602082015250565b7f227d000000000000000000000000000000000000000000000000000000000000600082015250565b7f4552433732313a206d696e7420746f20746865207a65726f2061646472657373600082015250565b7f45524337323155524953746f726167653a2055524920717565727920666f722060008201527f6e6f6e6578697374656e7420746f6b656e000000000000000000000000000000602082015250565b7f4552433732313a20617070726f76656420717565727920666f72206e6f6e657860008201527f697374656e7420746f6b656e0000000000000000000000000000000000000000602082015250565b7f4552433732314d657461646174613a2055524920717565727920666f72206e6f60008201527f6e6578697374656e7420746f6b656e0000000000000000000000000000000000602082015250565b7f7b226e616d65223a202200000000000000000000000000000000000000000000600082015250565b7f4552433732313a20617070726f76616c20746f2063757272656e74206f776e6560008201527f7200000000000000000000000000000000000000000000000000000000000000602082015250565b7f46495253545f574f524400000000000000000000000000000000000000000000600082015250565b7f222c20226465736372697074696f6e223a2022596f757220756e697175656c7960008201527f2067656e6572617465642063617420706f7765726564204e4654222c2022696d60208201527f616765223a2022646174613a696d6167652f7376672b786d6c3b62617365363460408201527f2c00000000000000000000000000000000000000000000000000000000000000606082015250565b7f646174613a6170706c69636174696f6e2f6a736f6e3b6261736536342c000000600082015250565b7f4552433732313a207472616e736665722063616c6c6572206973206e6f74206f60008201527f776e6572206e6f7220617070726f766564000000000000000000000000000000602082015250565b7f434f4c4f52000000000000000000000000000000000000000000000000000000600082015250565b613bf7816132b5565b8114613c0257600080fd5b50565b613c0e816132c7565b8114613c1957600080fd5b50565b613c25816132d3565b8114613c3057600080fd5b50565b613c3c8161331f565b8114613c4757600080fd5b5056fe416e204e465420772f20494420257320686173206265656e206d696e74656420746f2025734142434445464748494a4b4c4d4e4f505152535455565758595a6162636465666768696a6b6c6d6e6f707172737475767778797a303132333435363738392b2fa2646970667358221220a9cf2655aef0b400a86876ae6e2f50a9a362ee724d5dd5552a689d9cee10102564736f6c634300080400333c73766720786d6c6e733d27687474703a2f2f7777772e77332e6f72672f323030302f73766727207072657365727665417370656374526174696f3d27784d696e594d696e206d656574272076696577426f783d273020302033353020333530273e3c7374796c653e2e62617365207b2066696c6c3a2077686974653b20666f6e742d66616d696c793a20547265627563686574204d533b20666f6e742d73697a653a20323470783b207d3c2f7374796c653e3c726563742077696474683d273130302527206865696768743d2731303025272066696c6c3d27272f3e3c7465787420783d273530252720793d273530252720636c6173733d27626173652720646f6d696e616e742d626173656c696e653d276d6964646c652720746578742d616e63686f723d276d6964646c65273e",
  "linkReferences": {},
  "deployedLinkReferences": {}
}